S01700004D6F62696C655F4D6564695F426F782E737265634F
S11300000C943E000C945B000C945B000C945B001D
S11300100C945B000C945B000C945B000C945B00F0
S11300200C945B000C945B000C945B000C945B00E0
S11300300C945B000C945B000C945B000C945B00D0
S11300400C945B000C945B000C945B000C945B00C0
S11300500C945B003F0141014301450139013B011F
S11300603D01450133013501450145014501450186
S113007045014501370145014501470111241FBED2
S1130080CFE5D8E0DEBFCDBF11E0A0E6B0E0EEE8FA
S1130090F7E002C005900D92A030B107D9F721E036
S11300A0A0E0B1E001C01D92AB30B207E1F70E94BD
S11300B082030C94C5030C94000080EF87BB8FE08F
S11300C088BB089580910601909107018F7099274C
S11300D090930701809306018E30910561F4E091BD
S11300E00801F0910901EE0FFF1FEE0FFF1FE05A08
S11300F0FF4F808108958D30910561F4E0910801EE
S1130100F0910901EE0FFF1FEE0FFF1FE05AFF4FA2
S1130110818108958B30910561F4E0910801F0919B
S11301200901EE0FFF1FEE0FFF1FE05AFF4F828100
S11301300895079761F4E0910801F0910901EE0F29
S1130140FF1FEE0FFF1FE05AFF4F838108958EE6D5
S11301500895AF92BF92CF92DF92EF92FF920F93E6
S11301601F93CF93DF930F2EFFEEDF2EF02D0F2E74
S1130170FFEDCF2EF02D0F2EFFEBBF2EF02D0F2E07
S1130180FFE7AF2EF02D01E010E0C2E0D0E00F2E2B
S1130190F3E0EF2EF12CF02D86B390E0909307015D
S11301A0809306010F97C1F3D8BA86B390E0909379
S11301B00701809306018F3E910541F010920901D9
S11301C0109208010E9462008E36C1F5C8BA86B347
S11301D090E090930701809306018F3D910541F0D3
S11301E010930901009308010E9462008E3631F5D4
S11301F0B8BA86B390E090930701809306018F3BD1
S1130200910541F0D0930901C09308010E94620056
S11302108E36A1F4A8BA86B390E090930701809338
S113022006018F37910509F4B7CFF0920901E092E6
S113023008010E9462008E3609F4AECF0E9462006B
S1130240DF91CF911F910F91FF90EF90DF90CF90AE
S1130250BF90AF90089584319105B8F4FC01E65D38
S1130260FF4F0C94BF0381E3089582E3089583E371
S1130270089584E3089585E3089586E3089587E364
S1130280089588E3089589E308958FEF089580E33E
S1130290089582E680B984E086BF11B8089584EA9F
S11302A086BF06B607FEFDCF089583B984E886BFEE
S11302B006B607FEFDCF0895992354F408952150FE
S11302C03109E9F74F5F5F4F841795071CF40895D0
S11302D040E050E029E730E0F2CF199A84E886BF85
S11302E006B607FEFDCF81E090E00E945C011998FC
S11302F084E886BF06B607FEFDCF0895189894E8F3
S113030096BF06B607FEFDCF93B19F7093B994E8EC
S113031096BF06B607FEFDCF93B1807F892B83B9C4
S113032084E886BF06B607FEFDCF0E946D010895DE
S1130330CF93C82F189884E886BF06B607FEFDCF72
S113034083B18F7083B984E886BF06B607FEFDCFFC
S113035083B19C2F907F892B83B984E886BF06B62E
S113036007FEFDCF0E946D0183B18F7083B984E8CD
S113037086BF06B607FEFDCF23B130E1C39FC0019F
S11303801124822B83B984E886BF06B607FEFDCF0D
S11303900E946D01CF91089580E30E947E0180E365
S11303A00E947E0180E20E947E0188E20E94980100
S11303B08CE00E94980181E00E94980186E00E94EE
S11303C0980180E80E9498010895CF93C82F189A45
S11303D084E886BF06B607FEFDCF83B18F7083B96C
S11303E084E886BF06B607FEFDCF83B19C2F907FBD
S11303F0892B83B984E886BF06B607FEFDCF0E9429
S11304006D0183B18F7083B984E886BF06B607FE99
S1130410FDCF23B130E1C39FC0011124822B83B9E6
S113042084E886BF06B607FEFDCF0E946D01CF911A
S11304300895CF93DF93EC018881882331F02196CE
S11304400E94E50189918111FBCFDF91CF9108953D
S113045081E00E949801089580E80E94980108951F
S113046080EC0E94980108950E9428022FEF84E3F3
S11304709CE0215080409040E1F700C0000080E7FC
S113048090E00E9419022FEF84E39CE02150804009
S11304909040E1F700C000000E9430020E94A900D1
S11304A080930A01843191F48091000190910101BB
S11304B090930501809304012FEF84E39CE0215085
S11304C080409040E1F700C00000089590E00E9451
S11304D02B010E94E50180910A0190E00E942B010A
S11304E02091000130910101A901440F551F220FF1
S11304F0331F220F331F220F331F240F351F90E0A9
S1130500C097820F931F909301018093000184E3AD
S113051091E20E945C01C2CF0E9428022FEF84E383
S11305209CE0215080409040E1F700C0000086E745
S113053090E00E9419020E9430028FE790E00E942E
S113054019020E94A90080930A01833129F41092B0
S113055003011092020108C0883031F481E090E078
S113056090930301809302010E9428020895CF937F
S1130570DF93EC010E9428022FE78FE492E12150DF
S113058080409040E1F700C00000CE010E941902B3
S11305902FEF84E39CE0215080409040E1F700C0BD
S11305A00000DF91CF91089582BB8FB5826A8FBD21
S11305B08EB58B618EBD87E893E197BD86BD81B30F
S11305C0806381BB84EF91E09BBD8ABD08952FE7D2
S11305D08FE492E1215080409040E1F700C0000098
S11305E08FE890E00E9419020E94300288E990E0AE
S11305F00E9419020E94A90080930A018930C9F15E
S113060018F48830F1F065C0803109F44AC08331B0
S113061009F05FC088EA90E00E94B70280E090E0B1
S11306200E94D4022FEF83E294EF21508040904047
S1130630E1F700C0000012BA89EF90E09BBD8ABDCB
S1130640089588EB90E00E94B70281E090E00E9458
S1130650D4022FEF83E294EF215080409040E1F7E1
S113066000C0000081E082BB89EF90E09BBD8ABDA1
S1130670089588EB90E00E94B70282E090E00E9427
S1130680D4022FEF83E294EF215080409040E1F7B1
S113069000C0000082E082BB89EF90E09BBD8ABD70
S11306A0089587EC90E00E94B70283E090E00E94F6
S11306B0D4022FEF83E294EF215080409040E1F781
S11306C000C0000083E082BB89EF90E09BBD8ABD3F
S11306D008950E9428022FEF84E39CE0215080407B
S11306E09040E1F700C0000088ED90E00E941902FC
S11306F02FEF89E698E1215080409040E1F700C057
S1130700000008950E945D000E9449010E944F016B
S113071080E70E9455010E94CC010E9428022FEF1D
S113072081EE94E0215080409040E1F700C0000049
S11307300E942C0284EE90E00E9419022FEF89E6B9
S113074098E1215080409040E1F700C000000E94F1
S1130750300280EF90E00E9419022FEF89E698E1C1
S1130760215080409040E1F700C000000E94340214
S11307700E948C020E94E70280E090E00895EE0F50
S1110780FF1F0590F491E02D0994F894FFCF2B
S113078E00010203040506070809101112131415BB
S113079E4147453A200047656E6465723A20003041
S11307AE2E4D616C6520312E46656D616C6500536E
S11307BE656C6563743A2000302E5420312E4F2020
S11307CE322E4520332E4800506C616365596F7587
S11307DE7246696E67657200506C616365596F7518
S11307EE725468756D700050757469746F6E796F9C
S11307FE757263686573740057726F6E6720696EE5
S113080E7075740057454C434F4D452E2E2E2E00B9
S113081E4D6F62696C65204D65646920426F780086
S9030000FC
