S01700004D6F62696C655F4D6564695F426F782E737265634F
S11300000C943E000C945B000C945B000C945B001D
S11300100C945B000C945B000C945B000C945B00F0
S11300200C945B000C945B000C945B000C945B00E0
S11300300C945B000C945B000C945B000C945B00D0
S11300400C945B000C945B000C945B000C945B00C0
S11300500C945B003F0141014301450139013B011F
S11300603D01450133013501450145014501450186
S113007045014501370145014501470111241FBED2
S1130080CFE5D8E0DEBFCDBF11E0A0E6B0E0EAEAFC
S1130090F6E002C005900D92A230B107D9F721E035
S11300A0A2E0B1E001C01D92AD30B207E1F70E94B9
S11300B005030C9453030C94000080EF87BB8FE07E
S11300C088BB089580910801909109018F70992748
S11300D090930901809308018E30910561F4E091B9
S11300E00A01F0910B01EE0FFF1FEE0FFF1FE05A04
S11300F0FF4F808108958D30910561F4E0910A01EC
S1130100F0910B01EE0FFF1FEE0FFF1FE05AFF4FA0
S1130110818108958B30910561F4E0910A01F09199
S11301200B01EE0FFF1FEE0FFF1FE05AFF4F8281FE
S11301300895079761F4E0910A01F0910B01EE0F25
S1130140FF1FEE0FFF1FE05AFF4F838108958EE6D5
S11301500895AF92BF92CF92DF92EF92FF920F93E6
S11301601F93CF93DF930F2EFFEEDF2EF02D0F2E74
S1130170FFEDCF2EF02D0F2EFFEBBF2EF02D0F2E07
S1130180FFE7AF2EF02D01E010E0C2E0D0E00F2E2B
S1130190F3E0EF2EF12CF02D86B390E0909309015B
S11301A0809308010F97C1F3D8BA86B390E0909377
S11301B00901809308018F3E910541F010920B01D3
S11301C010920A010E9462008E36C1F5C8BA86B345
S11301D090E090930901809308018F3D910541F0CF
S11301E010930B0100930A010E9462008E3631F5D0
S11301F0B8BA86B390E090930901809308018F3BCD
S1130200910541F0D0930B01C0930A010E94620052
S11302108E36A1F4A8BA86B390E090930901809336
S113022008018F37910509F4B7CFF0920B01E092E2
S11302300A010E9462008E3609F4AECF0E94620069
S1130240DF91CF911F910F91FF90EF90DF90CF90AE
S1130250BF90AF90089584319105B8F4FC01E65D38
S1130260FF4F0C944D0381E3089582E3089583E3E3
S1130270089584E3089585E3089586E3089587E364
S1130280089588E3089589E308958FEF089580E33E
S1130290089582E680B984E086BF11B8089584EA9F
S11302A086BF06B607FEFDCF089583B984E886BFEE
S11302B006B607FEFDCF0895992354F408952150FE
S11302C03109E9F74F5F5F4F841795071CF40895D0
S11302D040E050E029E730E0F2CF199A84E886BF85
S11302E006B607FEFDCF81E090E00E945C011998FC
S11302F084E886BF06B607FEFDCF0895189894E8F3
S113030096BF06B607FEFDCF93B19F7093B994E8EC
S113031096BF06B607FEFDCF93B1807F892B83B9C4
S113032084E886BF06B607FEFDCF0E946D010895DE
S1130330CF93C82F189884E886BF06B607FEFDCF72
S113034083B18F7083B984E886BF06B607FEFDCFFC
S113035083B19C2F907F892B83B984E886BF06B62E
S113036007FEFDCF0E946D0183B18F7083B984E8CD
S113037086BF06B607FEFDCF23B130E1C39FC0019F
S11303801124822B83B984E886BF06B607FEFDCF0D
S11303900E946D01CF91089580E30E947E0180E365
S11303A00E947E0180E20E947E0188E20E94980100
S11303B08CE00E94980181E00E94980186E00E94EE
S11303C0980180E80E9498010895CF93C82F189A45
S11303D084E886BF06B607FEFDCF83B18F7083B96C
S11303E084E886BF06B607FEFDCF83B19C2F907FBD
S11303F0892B83B984E886BF06B607FEFDCF0E9429
S11304006D0183B18F7083B984E886BF06B607FE99
S1130410FDCF23B130E1C39FC0011124822B83B9E6
S113042084E886BF06B607FEFDCF0E946D01CF911A
S11304300895CF93DF93EC018881882331F02196CE
S11304400E94E50189918111FBCFDF91CF9108953D
S113045081E00E949801089580E80E94980108951F
S113046080EC0E94980108950E94280280E790E0A1
S11304700E9419022FEF80E792E0215080409040C3
S1130480E1F700C000000E9430020E94A90080939E
S11304900C01843191F480910201909103019093B5
S11304A00701809306012FE788E391E02150804003
S11304B09040E1F700C00000089590E00E942B01F5
S11304C00E94E50180910C0190E00E942B01209193
S11304D0020130910301A901440F551F220F331F5C
S11304E0220F331F220F331F240F351F90E0C097B4
S11304F0820F931F909303018093020184EF91E094
S11305000E945C01C2CFCF930E94280286E790E04C
S11305100E9419020E9430028FE790E00E941902A3
S11305200E94A900C82F80930C0184EF91E00E94DF
S11305305C01C33129F4109205011092040108C032
S1130540C83031F481E090E0909305018093040178
S11305502FE788E391E0215080409040E1F700C00C
S113056000000E942802CF910895CF93DF93EC01FD
S11305700E942802CE010E9419022FE788E391E02D
S1130580215080409040E1F700C00000DF91CF91FE
S113059008958FE890E00E9419020E94300288E9D1
S11305A090E00E9419020E94A90080930C018930F6
S11305B091F018F4883051F018C0803189F08331FB
S11305C0A1F488EA90E00E94B50208958AEB90E0D5
S11305D00E94B50208958AEB90E00E94B502089546
S11305E089EC90E00E94B50208950E9428028AEDE9
S11305F090E00E9419022FEF80E792E021508040A2
S11306009040E1F700C0000008950E945D000E9440
S113061049010E944F0180E70E9455010E94CC01CC
S11306200E9428022FEF80E792E021508040904002
S1130630E1F700C000000E942C0286EE90E00E94C8
S113064019022FE788E391E0215080409040E1F7C0
S113065000C000000E94300282EF90E00E94190264
S11306602FE789EA93E0215080409040E1F700C0F1
S113067000000E9428022FE788E391E02150804087
S11306809040E1F700C000000E9434020E948302FF
S11306900E94C90280E090E00895EE0FFF1F0590CC
S10D06A0F491E02D0994F894FFCFC3
S11306AA00010203040506070809101112131415A0
S11306BA4147453A200047656E6465723A20003026
S11306CA2E4D616C6520312E46656D616C65005353
S11306DA656C6563743A2000302E5420312E4F2005
S11306EA322E4520332E4800506C61636520596FC1
S11306FA75722046696E67657200506C616365594C
S113070A6F75725468756D700050757469746F6E84
S113071A796F757263686573740057726F6E6720B8
S113072A696E7075740057454C434F4D452E2E2EF5
S113073A2E004D6F62696C65204D65646920426FB5
S105074A780031
S9030000FC
