:100000000C943E000C945B000C945B000C945B0021
:100010000C945B000C945B000C945B000C945B00F4
:100020000C945B000C945B000C945B000C945B00E4
:100030000C945B000C945B000C945B000C945B00D4
:100040000C945B000C945B000C945B000C945B00C4
:100050000C945B003F0141014301450139013B0123
:100060003D0145013301350145014501450145018A
:1000700045014501370145014501470111241FBED6
:10008000CFE5D8E0DEBFCDBF11E0A0E6B0E0EEE8FE
:10009000F7E002C005900D92A031B107D9F721E039
:1000A000A0E1B1E001C01D92AD31B207E1F70E94BD
:1000B00080030C94C5030C94000080EF87BB8FE095
:1000C00088BB089580911601909117018F70992730
:1000D00090931701809316018E30910561F4E091A1
:1000E0001801F0911901EE0FFF1FEE0FFF1FE05AEC
:1000F000FF4F808108958D30910561F4E0911801E2
:10010000F0911901EE0FFF1FEE0FFF1FE05AFF4F96
:10011000818108958B30910561F4E0911801F0918F
:100120001901EE0FFF1FEE0FFF1FE05AFF4F8281F4
:100130000895079761F4E0911801F0911901EE0F0D
:10014000FF1FEE0FFF1FE05AFF4F838108958EE6D9
:100150000895AF92BF92CF92DF92EF92FF920F93EA
:100160001F93CF93DF930F2EFFEEDF2EF02D0F2E78
:10017000FFEDCF2EF02D0F2EFFEBBF2EF02D0F2E0B
:10018000FFE7AF2EF02D01E010E0C2E0D0E00F2E2F
:10019000F3E0EF2EF12CF02D86B390E09093170151
:1001A000809316010F97C1F3D8BA86B390E090936D
:1001B0001701809316018F3E910541F010921901AD
:1001C000109218010E9462008E36C1F5C8BA86B33B
:1001D00090E090931701809316018F3D910541F0B7
:1001E00010931901009318010E9462008E3631F5B8
:1001F000B8BA86B390E090931701809316018F3BB5
:10020000910541F0D0931901C09318010E9462003A
:100210008E36A1F4A8BA86B390E09093170180932C
:1002200016018F37910509F4B7CFF0921901E092CA
:1002300018010E9462008E3609F4AECF0E9462005F
:10024000DF91CF911F910F91FF90EF90DF90CF90B2
:10025000BF90AF90089584319105B8F4FC01E65D3C
:10026000FF4F0C94BF0381E3089582E3089583E375
:10027000089584E3089585E3089586E3089587E368
:10028000089588E3089589E308958FEF089580E342
:10029000089582E680B984E086BF11B8089584EAA3
:1002A00086BF06B607FEFDCF089583B984E886BFF2
:1002B00006B607FEFDCF0895992354F40895215002
:1002C0003109E9F74F5F5F4F841795071CF40895D4
:1002D00040E050E029E730E0F2CF199A84E886BF89
:1002E00006B607FEFDCF81E090E00E945C01199800
:1002F00084E886BF06B607FEFDCF0895189894E8F7
:1003000096BF06B607FEFDCF93B19F7093B994E8F0
:1003100096BF06B607FEFDCF93B1807F892B83B9C8
:1003200084E886BF06B607FEFDCF0E946D010895E2
:10033000CF93C82F189884E886BF06B607FEFDCF76
:1003400083B18F7083B984E886BF06B607FEFDCF00
:1003500083B19C2F907F892B83B984E886BF06B632
:1003600007FEFDCF0E946D0183B18F7083B984E8D1
:1003700086BF06B607FEFDCF23B130E1C39FC001A3
:100380001124822B83B984E886BF06B607FEFDCF11
:100390000E946D01CF91089580E30E947E0180E369
:1003A0000E947E0180E20E947E0188E20E94980104
:1003B0008CE00E94980181E00E94980186E00E94F2
:1003C000980180E80E9498010895CF93C82F189A49
:1003D00084E886BF06B607FEFDCF83B18F7083B970
:1003E00084E886BF06B607FEFDCF83B19C2F907FC1
:1003F000892B83B984E886BF06B607FEFDCF0E942D
:100400006D0183B18F7083B984E886BF06B607FE9D
:10041000FDCF23B130E1C39FC0011124822B83B9EA
:1004200084E886BF06B607FEFDCF0E946D01CF911E
:100430000895CF93DF93EC018881882331F02196D2
:100440000E94E50189918111FBCFDF91CF91089541
:1004500081E00E949801089580E80E949801089523
:1004600080EC0E94980108950E9428022FEF84E3F7
:100470009CE0215080409040E1F700C0000080E700
:1004800090E00E9419022FEF84E39CE0215080400D
:100490009040E1F700C000000E9430020E94A900D5
:1004A00080931A01843191F480911001909111018F
:1004B00090931501809314012FEF84E39CE0215069
:1004C00080409040E1F700C00000089590E00E9455
:1004D0002B010E94E50180911A0190E00E942B01FE
:1004E0002091100130911101A901440F551F220FD5
:1004F000331F220F331F220F331F240F351F90E0AD
:10050000C097820F931F909311018093100184E391
:1005100091E20E945C01C2CF0E9428022FEF84E387
:100520009CE0215080409040E1F700C0000086E749
:1005300090E00E9419020E9430028FE790E00E9432
:1005400019020E94A90080931A01833129F41092A4
:1005500013011092120108C0883031F481E090E05C
:1005600090931301809312010E9428020895CF9363
:10057000DF932FEF84E39CE0215080409040E1F72F
:1005800000C000008FE890E00E9419020E94300233
:10059000C0E0D0E00E94A90080931A0190E00E9480
:1005A0002B010E94E50180911A01E0911B01F0915D
:1005B0001C01EC0FFD1F808384E391E20E945C012B
:1005C0002196CA30D10531F70E9428022FE78AE12F
:1005D00096E0215080409040E1F700C00000DF919C
:1005E000CF910895CF93DF93EC010E9428022FE76B
:1005F0008FE492E1215080409040E1F700C000007C
:10060000CE010E9419022FEF84E39CE0215080402C
:100610009040E1F700C00000DF91CF91089582BBC8
:100620008FB5826A8FBD8EB58B618EBD87E893E1F1
:1006300097BD86BD81B3806381BB84EF91E09BBD94
:100640008ABD08952FE78FE492E1215080409040C9
:10065000E1F700C000008EE990E00E9419020E94BC
:10066000300287EA90E00E9419020E94A90080935C
:100670001A018930D1F018F4883071F028C0803127
:10068000E9F0833121F587EB90E00E94F20280E0EF
:1006900090E00E940F03089587EC90E00E94F20220
:1006A00081E090E00E940F03089587EC90E00E94A3
:1006B000F20282E090E00E940F03089586ED90E040
:1006C0000E94F20283E090E00E940F0308950E94CE
:1006D00028022FEF84E39CE0215080409040E1F716
:1006E00000C0000087EE90E00E9419022FEF89E61B
:1006F00098E1215080409040E1F700C0000008954B
:100700000E945D000E9449010E944F0180E70E9403
:1007100055010E94CC010E9428022FEF81EE94E047
:10072000215080409040E1F700C000000E942C0260
:1007300083EF90E00E9419022FEF89E698E12150A3
:1007400080409040E1F700C000000E9430028FEF2F
:1007500090E00E9419022FEF89E698E12150804035
:100760009040E1F700C000000E9434020E948C0219
:100770000E94B7020E94220380E090E00895EE0FED
:0E078000FF1F0590F491E02D0994F894FFCF2F
:10078E0000010203040506070809101112131415BF
:10079E004147453A200047656E6465723A20003045
:1007AE002E4D616C6520312E46656D616C65005075
:1007BE00686F6E65204E756D6265723A20005365E6
:1007CE006C6563743A2000302E5420312E4F203247
:1007DE002E4520332E4800506C616365596F75723B
:1007EE0046696E67657200506C616365596F75720C
:1007FE005468756D700050757469746F6E796F758D
:10080E007263686573740057726F6E6720696E70DD
:10081E0075740057454C434F4D452E2E2E2E004DD0
:10082E006F62696C65204D65646920426F780000C7
:00000001FF
